S01300006D6567613332385F50574D2E7372656387
S11300000C9434000C9425070C9451000C9451006A
S11300100C9451000C9451000C9451000C94510018
S11300200C9451000C9451000C9451000C94510008
S11300300C9451000C9408050C9451000C9451003C
S11300400C9451000C9451000C9451000C945100E8
S11300500C9451000C9451000C9451000C945100D8
S11300600C9451000C94510011241FBECFEFD8E022
S1130070DEBFCDBF14E0A0E0B1E0EEEAFEE002C0D6
S113008005900D92AC30B107D9F724E0ACE0B4E0B0
S113009001C01D92A833B207E1F70E948B040C94AF
S11300A055070C9400008AB180668AB984B5806AC9
S11300B084BD84B5816084BD85B5836085BD17BC6E
S11300C018BC089584B1866084B9E0E8F0E08081CA
S11300D0806A8083808181608083E1E8F0E08081B0
S11300E08360808381E080936F007894109289000C
S11300F01092880010928B0010928A000895239A1F
S1130100539AE0EBF0E08081806A80838081816093
S11301108083E1EBF0E08081836080831092B30000
S11301201092B400089587B18F6387B940988AB15B
S113013083688AB95898209A28980895ECE0F4E0E6
S1130140108211821282E2ECF3E080818093340405
S113015082818093250484818093310486818093F5
S11301602E04808580931F04828580931804109246
S11301702704109222041092370410922004109243
S11301802A041092160408950F93A82FB0E0A457E0
S1130190BD4F8C9187BDE62FF0E0E457FD4F808181
S11301A088BDA42FB0E0A457BD4F8C9190E09093EC
S11301B0890080938800A22FB0E0A457BD4F8C9192
S11301C090E090938B0080938A00A02FB0E0A45716
S11301D0BD4F8C918093B30080818093B4000F91C4
S11301E0089580910D0490E0FC01EE0FFF1FE80FCD
S11301F0F91FEE0FFF1FE256FC4F2081222321F04E
S1130200209127042130C1F52091330421111AC013
S1130210409134044F5F4093340420910C0430E047
S1130220F901EE0FFF1FE20FF31FEE0FFF1FEE0F9A
S1130230FF1FEE53FC4F21814217E0F021E0209391
S1130240330418C040913404415040933404209145
S11302500C0430E0F901EE0FFF1FE20FF31FEE0F65
S1130260FF1FEE0FFF1FEE53FC4F2081241710F0E9
S11302701092330410922704FC01EE0FFF1FE80FC5
S1130280F91FEE0FFF1FE256FC4F2181222321F0BC
S1130290209122042130C1F520911C0421111AC09F
S11302A0409125044F5F4093250420910C0430E0D5
S11302B0F901EE0FFF1FE20FF31FEE0FFF1FEE0F0A
S11302C0FF1FEE53FC4F23814217E0F021E02093FF
S11302D01C0418C0409125044150409325042091EA
S11302E00C0430E0F901EE0FFF1FE20FF31FEE0FD5
S11302F0FF1FEE0FFF1FEE53FC4F2281241710F057
S113030010921C0410922204FC01EE0FFF1FE80F50
S1130310F91FEE0FFF1FE256FC4F2281222321F02A
S1130320209137042130C1F52091260421111AC0EF
S1130330409131044F5F4093310420910C0430E02C
S1130340F901EE0FFF1FE20FF31FEE0FFF1FEE0F79
S1130350FF1FEE53FC4F25814217E0F021E020936C
S1130360260418C040913104415040933104209137
S11303700C0430E0F901EE0FFF1FE20FF31FEE0F44
S1130380FF1FEE0FFF1FEE53FC4F2481241710F0C4
S11303901092260410923704FC01EE0FFF1FE80FA1
S11303A0F91FEE0FFF1FE256FC4F2381222321F099
S11303B0209120042130C1F52091240421111AC078
S11303C040912E044F5F40932E0420910C0430E0A2
S11303D0F901EE0FFF1FE20FF31FEE0FFF1FEE0FE9
S11303E0FF1FEE53FC4F27814217E0F021E02093DA
S11303F0240418C040912E04415040932E042091AF
S11304000C0430E0F901EE0FFF1FE20FF31FEE0FB3
S1130410FF1FEE0FFF1FEE53FC4F2681241710F031
S11304201092240410922004FC01EE0FFF1FE80F29
S1130430F91FEE0FFF1FE256FC4F2481222321F007
S113044020912A042130C1F52091300421111AC0D1
S113045040911F044F5F40931F0420910C0430E02F
S1130460F901EE0FFF1FE20FF31FEE0FFF1FEE0F58
S1130470FF1FEE53FC4F21854217E0F021E020934B
S1130480300418C040911F04415040931F04209130
S11304900C0430E0F901EE0FFF1FE20FF31FEE0F23
S11304A0FF1FEE0FFF1FEE53FC4F2085241710F0A3
S11304B01092300410922A04FC01EE0FFF1FE80F83
S11304C0F91FEE0FFF1FE256FC4F8581882321F0B0
S11304D0809116048130C1F580912D0481111AC0D8
S11304E0209118042F5F2093180480910C0490E04D
S11304F0FC01EE0FFF1FE80FF91FEE0FFF1FEE0FB9
S1130500FF1FEE53FC4F83852817E0F081E08093B2
S11305102D0418C0209118042150209318048091B0
S11305200C0490E0FC01EE0FFF1FE80FF91FEE0F23
S1130530FF1FEE0FFF1FEE53FC4F8285821710F052
S113054010922D04109216040895009741F0EFE9DB
S1130550FFE03197F1F700C000000197C1F708955B
S1130560809136048F3F29F4809135048F5F809306
S1130570350480913504883209F060C080910A0402
S1130580833419F128F4813449F0823491F054C051
S1130590853499F130F18634E1F14EC0ECE0F4E0B9
S11305A01082118280913204828382E480930A044F
S11305B043C0ECE0F4E081E08083818380913204E5
S11305C0828383E480930A0437C0ECE0F4E082E0A1
S11305D08083818380913204828384E480930A043B
S11305E02BC0ECE0F4E083E08083818380913204CB
S11305F0828385E480930A041FC0ECE0F4E084E085
S11306008083818380913204828386E480930A0408
S113061013C0ECE0F4E085E08083818380913204B0
S1130620828391E490930A048F5F893019F0809358
S1130630320402C010923204109235040895EF92ED
S11306400F93CF93DF9380912C04813009F01DC167
S1130650C1E0D2E080913304811109C08091340457
S11306608F5F809334048F3F11F4C09333048091DF
S11306701C0481110DC0809134048E3748F08091A0
S113068025048F5F809325048F3F11F4C0931C04CD
S11306908091260481110DC0809125048E3748F085
S11306A0809131048F5F809331048F3F11F4C093A4
S11306B026048091240481110DC0809131048E3769
S11306C048F080912E048F5F80932E048F3F11F4A5
S11306D0C09324048091300481110DC080912E04B4
S11306E08E3748F080911F048F5F80931F048F3FE3
S11306F011F4C093300480912D0481110DC08091B8
S11307001F048E3748F0809118048F5F809318047B
S11307108F3F11F4C0932D0480911B0481110DC0EF
S1130720809118048E3748F080912B048F5F80935A
S11307302B048F3F11F4C0931B0480911904811181
S11307400DC080912B048E3748F0809121048F5F77
S1130750809321048F3F11F4C093190480913304D2
S1130760813069F4809131048E3748F080913404EB
S1130770815080933404811102C0D093330480915A
S11307801C04813069F480912E048E3748F08091E6
S11307902504815080932504811102C0D0931C0448
S11307A080912604813069F480911F048E3748F0CB
S11307B080913104815080933104811102C0D0931F
S11307C0260480912404813069F4809118048E37C2
S11307D048F080912E04815080932E04811102C030
S11307E0D093240480913004813069F480912B04E7
S11307F08E3748F080911F04815080931F0481112B
S113080002C0D093300480912D04813059F480913A
S113081021048E3708F180911804815080931804C4
S1130820882321F080912D048230B1F410922C049D
S113083010922B04109221041092330410921C0481
S113084010922604109224041092300410922D0465
S113085010921B0410921904E090180400911F04D4
S113086020912E0440913104609125048091340438
S11308700E94C40087EB9BE00197F1F700C00000E1
S113088080912C04813009F4E5CEDF91CF910F9152
S1130890EF90089517BC18BC10928900109288003C
S11308A010928B0010928A001092B3001092B40040
S11308B01092330410921C04109226041092240403
S11308C01092300410922D0410921B0410921904FB
S11308D010923404109225041092310410922E04C4
S11308E010921F0410921804089518B81BB815B874
S11308F008958FEF87BD88BD2FEF30E030938900D6
S11309002093880030938B0020938A008093B30057
S11309108093B400089552985A9AE9E6F0E08081F1
S113092082608083E89A78940E9453000E94620057
S11309300E947F000E94930081E080932C048093A6
S113094029040E941F030E949E000F2EF8E8CF2E58
S1130950D12CF02D0F2EFAE8AF2EB12CF02D0F2E46
S1130960F3EB8F2E912CF02D0F2EF4EB6F2E712CB8
S1130970F02DCCE0D4E080911A04823018F40E9467
S1130980F1001CC097B5911117C098B5911114C00E
S1130990F60120813181232B79F4F5012081318105
S11309A0232B51F4F4019081911106C0F30190813D
S11309B0911102C0843049F40E944A0480911A04BF
S11309C0843019F40E94790410C0E0901804009156
S11309D01F0420912E0440913104609125048091DC
S11309E034040E94C4000E94B002809110049091CB
S11309F011040E94A502EA81F0E0EE0FFF1FE45704
S1130A00FC4F808191819093110480931004B3CFA3
S1130A101F920F920FB60F9211242F933F934F936F
S1130A205F936F937F938F939F93AF93BF93EF9352
S1130A30FF93809136048F5F8093360480910F0476
S1130A40682F70E096E1899FF0011124E050FF4F78
S1130A5044895589209114043091150424173507CD
S1130A6008F4DBC120911204309113042F5F3F4F2F
S1130A70309313042093120496E1969FF001979FFC
S1130A80F00D1124E050FF4F22893389429FB001B9
S1130A90439F700D529F700D1124209112043091C8
S1130AA013046217730799F491E090932904109248
S1130AB0130410921204109215041092140481313C
S1130AC020F48F5F80930F0402C010920F04809172
S1130AD02904813009F0EEC080911A048D7F09F059
S1130AE0E9C0E0910F0486E1E89FF0011124E05091
S1130AF0FF4F2081318180911404909115042817AF
S1130B00390721F481E088B91BB815B8E0910F04C6
S1130B1096E1E99FF0011124E050FF4F22813381D7
S1130B2080911404909115042817390721F482E068
S1130B3088B91BB815B8E0910F0486E1E89FF0016D
S1130B401124E050FF4F2481358180911404909149
S1130B5015042817390721F484E088B91BB815B89F
S1130B60E0910F0496E1E99FF0011124E050FF4F5A
S1130B702681378180911404909115042817390730
S1130B8021F488E088B91BB815B8E0910F0486E118
S1130B90E89FF0011124E050FF4F208531858091BA
S1130BA01404909115042817390721F480E188B9B9
S1130BB01BB815B8E0910F0496E1E99FF0011124E8
S1130BC0E050FF4F228533858091140490911504E1
S1130BD02817390721F480E288B91BB815B8E091C9
S1130BE00F0486E1E89FF0011124E050FF4F2485B3
S1130BF0358580911404909115042817390721F440
S1130C0018B81BB881E085B9E0910F0496E1E99F1B
S1130C10F0011124E050FF4F26853785809114049C
S1130C20909115042817390721F418B881E08BB97D
S1130C3015B8E0910F0486E1E89FF0011124E0501B
S1130C40FF4F20893189809114049091150428174D
S1130C50390721F418B882E08BB915B8E0910F0474
S1130C6096E1E99FF0011124E050FF4F2289338976
S1130C7080911404909115042817390721F418B8A9
S1130C8080E88BB915B8E0910F0486E1E89FF00184
S1130C901124E050FF4F24893589809114049091E8
S1130CA015042817390769F418B81BB815B8109239
S1130CB0290407C088B1811102C08BB181110E943F
S1130CC0750480912704811105C080911E048F5FF3
S1130CD080931E0480912204811105C080911D041B
S1130CE08F5F80931D0480913704811105C080912A
S1130CF02F048F5F80932F0480912004811105C0FD
S1130D00809128048F5F8093280480912A048111A4
S1130D1005C0809123048F5F80932304809116047F
S1130D20811105C0809117048F5F8093170480910F
S1130D300D0490E0FC01EE0FFF1FE80FF91FEE0F0A
S1130D40FF1FE256FC4F308120911E04321305C070
S1130D5010921E0421E020932704FC01EE0FFF1FD4
S1130D60E80FF91FEE0FFF1FE256FC4F318120916F
S1130D701D04321305C010921D0421E020932204A7
S1130D80FC01EE0FFF1FE80FF91FEE0FFF1FE256E5
S1130D90FC4F328120912F04321305C010922F048E
S1130DA021E020933704FC01EE0FFF1FE80FF91F29
S1130DB0EE0FFF1FE256FC4F3381209128043213BB
S1130DC005C01092280421E020932004FC01EE0FBA
S1130DD0FF1FE80FF91FEE0FFF1FE256FC4F34818F
S1130DE020912304321305C01092230421E02093A0
S1130DF02A04FC01EE0FFF1FE80FF91FEE0FFF1F7F
S1130E00E256FC4F95818091170498130DC01092FF
S1130E10170481E08093160407C02F5F3F4F30937F
S1130E2015042093140428CEFF91EF91BF91AF9144
S1130E309F918F917F916F915F914F913F912F91EE
S1130E400F900FBE0F901F9018951F920F920FB620
S1130E500F9211242F933F934F935F936F937F933C
S1130E608F939F93AF93BF93EF93FF930E944A0492
S1130E700E94750480911A048F5F853019F0809365
S1130E801A0402C010921A04FF91EF91BF91AF911E
S1130E909F918F917F916F915F914F913F912F918E
S1110EA00F900FBE0F901F901895F894FFCF7F
S1130EAE0A001E00320046005A006E0082009600B0
S1130EBEAA00BE00D2000A001E00320046007800CE
S1130ECEAA00DC000E01220136014A010A001E00AE
S1130EDE320046005A006E0082009600AA00BE0040
S1130EEED2000A001E0032007800BE000401180170
S1130EFE2C014001540168010A0014001E00280050
S1130F0E32003C00460050005A0064006E000A0095
S1130F1E1E00320046005A006E0082009600AA009F
S1130F2EBE00D2000A001E00320050007800AA0053
S1130F3EE600180140015E0172010A001E00320033
S1130F4E46005A006E008200B400E60018014A0101
S1130F5E0A001E003C006E00B4000E01540186010E
S1130F6EA401B801CC010A001E00320046005A004A
S1130F7E6E0082009600AA00BE00D2000A001E0077
S1130F8E320046005A008200AA00D200E600FA009F
S1130F9E0E010A001E00320046005A006E00820046
S1130FAE9600AA00BE00D2000A001E0032005000B5
S1130FBE7800AA00DC000401220136014A010A006D
S1130FCE1E00320046005A006E0082009600AA00EF
S1130FDEBE00D2000A001E00320046005A007800FD
S1130FEEA000D200040136014A010A001E0032009C
S1130FFE46005A006E0082009600AA00BE00D2007F
S113100E0A001E00320050007800A000BE00D2007C
S113101EE600FA000E010A0014001E002800320039
S113102E3C00460050005A0064006E0000000000B0
S113103E0000000000000101010101010101010194
S113104E0101010101020202020202020202030371
S113105E0303030304040404040505050506060638
S113106E07070708080809090A0A0B0B0C0C0D0DD3
S113107E0E0F0F10111112131415161718191A1B1F
S113108E1C1D1F202123242627292B2C2E303234DD
S113109E36383A3C3E404345474A4C4F51545759D3
S11310AE5C5F6264676A6D707376797C7F82858813
S11310BE8B8E9194979A9C9FA2A5A7AAADAFB2B41A
S11310CEB7B9BBBEC0C2C4C6C8CACCCED0D2D3D5A3
S11310DED7D8DADBDDDEDFE1E2E3E4E5E6E7E8E9F3
S11310EEEAEBECEDEDEEEFEFF0F1F1F2F2F3F3F4F7
S11310FEF4F5F5F6F6F6F7F7F7F8F8F8F9F9F9F96D
S113110EFAFAFAFAFAFBFBFBFBFBFBFCFCFCFCFC1D
S113111EFCFCFCFCFDFDFDFDFDFDFDFDFDFDFDFDF1
S113112EFDFDFDFEFEFEFEFEFEFEFFFF05000300BE
S113113E040006000700050003000400050009066C
S113114E0A060A0807040709080708070609050C12
S113115E0609040607070406080506040A08060815
S113116E07089BFF69FFCDFF9BFF73FFCDFF69FF50
S113117E9BFF73FFCDFFCDFF73FF9BFFCDFF9BFF47
S113118E73FF9BFFCDFF69FF37FF2DFF23FF19FF71
S113119E0FFF9BFF01FF9BFFA5FFAFFFB9FF5FFF93
S10F11AE55FFCDFFC3FF9BFF9BFF4100DA
S9030000FC
