:100000000C943C000C948A050C9459000C945900F3
:100010000C9459000C9459000C9459000C945900FC
:100020000C9459000C9459000C9459000C945900EC
:100030000C9459000C9464050C9459000C945900CC
:100040000C9459000C9459000C9459000C945900CC
:100050000C9459000C9459000C9459000C945900BC
:100060000C9459000C9459000E0426043E045604C6
:100070006E0486049E04B60411241FBECFEFD8E0A0
:10008000DEBFCDBF12E0A0E0B1E0EAE8FBE002C0D5
:1000900005900D92A83CB107D9F722E0A8ECB2E098
:1000A00001C01D92A63EB207E1F70E943F050C94E5
:1000B000C3050C9400008AB180668AB984B5806A51
:1000C00084BD84B5816084BD85B5836085BD17BC62
:1000D00018BC089584B1866084B9E0E8F0E08081BE
:1000E000806A8083808181608083E1E8F0E08081A4
:1000F0008360808381E080936F0078941092890000
:100100001092880010928B0010928A000895239A12
:10011000539AE0EBF0E08081806A80838081816087
:100120008083E1EBF0E08081836080831092B300F4
:100130001092B4000895EF920F93E82FF0E0E85387
:10014000FE4F808187BDE62FF0E0E853FE4F8081AF
:1001500088BDE42FF0E0E853FE4F808190E090935B
:10016000890080938800E22FF0E0E853FE4F808101
:1001700090E090938B0080938A00E02FF0E0E853AA
:10018000FE4F80818093B300EE2DF0E0E853FE4FE8
:1001900080818093B4000F91EF900895EF920F93B8
:1001A000CF938091D302813009F052C0CFEF80917C
:1001B000E3028F3F29F08F5F8093E3028E3738F0A0
:1001C0006091DA026F3F39F06F5F6093DA026091FD
:1001D000DA026E3738F04091E1024F3F39F04F5F5D
:1001E0004093E1024091E1024E3738F02091DF0266
:1001F0002F3F39F02F5F2093DF022091DF022E374F
:1002000038F00091D6020F3F39F00F5F0093D6020D
:100210000091D6020E3738F09091CD029F3F41F009
:100220009F5F9093CD02E090CD029FEFE91203C053
:100230001092D302EC2E0E949B008FEC97E0019766
:10024000F1F700C000008091D302813009F4AFCFF4
:10025000CF910F91EF900895EF920F938091E40268
:10026000813009F050C08091E302882329F0815049
:100270008093E3028E3738F46091DA02662339F016
:1002800061506093DA026091DA026E3738F440917F
:10029000E102442339F041504093E1024091E102F0
:1002A0004E3738F42091DF02222339F02150209379
:1002B000DF022091DF022E3738F40091D6020023AE
:1002C00039F001500093D6020091D6020E3738F46F
:1002D0009091CD02992339F091509093CD02E09006
:1002E000CD02E11003C01092E402E12C0E949B00B9
:1002F0008FEC97E00197F1F700C000008091E402D5
:10030000813009F4B0CF0F91EF900895EF920F93E1
:10031000CF938091E502813009F053C0CFEFE09098
:10032000CD028FEFE81631F0E394E092CD029DE725
:100330009E1538F40091D6020F3F39F00F5F0093FD
:10034000D6020091D6020E3738F02091DF022F3FFF
:1003500039F02F5F2093DF022091DF022E3738F033
:100360004091E1024F3F39F04F5F4093E1024091ED
:10037000E1024E3738F06091DA026F3F39F06F5F7B
:100380006093DA026091DA026E3738F08091E3020E
:100390008F3F39F08F5F8093E3028091E3028F3FBC
:1003A00019F41092E5028C2F0E949B008FEC97E0CD
:1003B0000197F1F700C000008091E502813009F457
:1003C000AECFCF910F91EF900895EF920F93809160
:1003D000DD02813009F051C0E090CD02EE2031F015
:1003E000EA94E092CD028DE78E1538F00091D602A6
:1003F000002339F001500093D6020091D6020E3747
:1004000038F42091DF02222339F021502093DF02BB
:100410002091DF022E3738F44091E102442339F075
:1004200041504093E1024091E1024E3738F460912F
:10043000DA02662339F061506093DA026091DA02E1
:100440006E3738F48091E302882339F0815080932D
:10045000E3028091E302811103C01092DD0280E08B
:100460000E949B008FEC97E00197F1F700C000001D
:100470008091DD02813009F4AFCF0F91EF900895A4
:10048000EF920F93CF93DF938091D702813009F0E1
:100490001DC1C1E0D2E08091E202811109C08091CA
:1004A000E3028F5F8093E3028F3F11F4C093E20277
:1004B0008091D50281110DC08091E3028E3748F002
:1004C0008091DA028F5F8093DA028F3F11F4C0933C
:1004D000D5028091DB0281110DC08091DA028E3746
:1004E00048F08091E1028F5F8093E1028F3F11F429
:1004F000C093DB028091D80281110DC08091E1028E
:100500008E3748F08091DF028F5F8093DF028F3F4C
:1005100011F4C093D8028091E00281110DC0809146
:10052000DF028E3748F08091D6028F5F8093D6022B
:100530008F3F11F4C093E0028091DE0281110DC063
:100540008091D6028E3748F08091CD028F5F8093E4
:10055000CD028F3F11F4C093DE028091D102811150
:100560000DC08091CD028E3748F08091DC028F5F04
:100570008093DC028F3F11F4C093D1028091CE02B0
:1005800081110DC08091DC028E3748F08091CF023E
:100590008F5F8093CF028F3F11F4C093CE02809182
:1005A000E202813069F48091E1028E3748F0809157
:1005B000E30281508093E302811102C0D093E202F2
:1005C0008091D502813069F48091DF028E3748F046
:1005D0008091DA0281508093DA02811102C0D093B7
:1005E000D5028091DB02813069F48091D6028E378A
:1005F00048F08091E10281508093E102811102C0B4
:10060000D093DB028091D802813069F48091CD02D1
:100610008E3748F08091DF0281508093DF02811194
:1006200002C0D093D8028091E002813069F48091B9
:10063000DC028E3748F08091D60281508093D6023A
:10064000811102C0D093E0028091DE02813059F422
:100650008091CF028E3708F18091CD028150809336
:10066000CD02882321F08091DE028230B1F4109215
:10067000D7021092DC021092CF021092E202109286
:10068000D5021092DB021092D8021092E002109272
:10069000DE021092D1021092CE02E090CD020091C3
:1006A000D6022091DF024091E1026091DA0280914E
:1006B000E3020E949B0087EB9BE00197F1F700C0EB
:1006C00000008091D702813009F4E5CEDF91CF910F
:1006D0000F91EF9008958091D402813099F48FEFBB
:1006E00087BD88BD2FEF30E03093890020938800CC
:1006F00030938B0020938A008093B3008093B400E2
:100700001092D40208958091D002813081F417BCF8
:1007100018BC109289001092880010928B001092E1
:100720008A001092B3001092B4001092D002089583
:10073000E091CC02F0E0EE0FFF1FE050FF4F208170
:1007400031818091C8029091C9022817390709F0B8
:1007500053C1F8948091D902811115C01092D3022F
:100760001092E4021092E5021092DD021092D4027F
:100770001092D0029091CC029F5F9093CC0291E0B6
:100780009093D7020BC18130B9F59091D202913488
:1007900019F09234C9F030C091E09093D3021092D6
:1007A000E4021092E5021092DD021092D40210923F
:1007B000D0021092D70292E49093D2029091CC0290
:1007C0009F5F9093CC02FCC01092D30291E0909373
:1007D000E4021092E5021092DD021092D40210920F
:1007E000D0021092D70291E49093D2029091CC0261
:1007F0009F5F9093CC02E4C0823009F0CFC0E091BB
:10080000D2024E2F50E0FA01E154F109E830F1052F
:1008100008F0C4C0EC5CFF4F0C94BD0581E08093F0
:10082000D3021092E4021092E5021092DD021092BF
:10083000D4021092D0021092D70282E48093D202A6
:100840008091CC028F5F8093CC02CBC01092D302F8
:1008500081E08093E4021092E5021092DD02109292
:10086000D4021092D0021092D70283E48093D20275
:100870008091CC028F5F8093CC02B3C01092D302E0
:100880001092E40281E08093E5021092DD02109262
:10089000D4021092D0021092D70284E48093D20244
:1008A0008091CC028F5F8093CC029BC01092D302C8
:1008B0001092E4021092E50281E08093DD02109232
:1008C000D4021092D0021092D70285E48093D20213
:1008D0008091CC028F5F8093CC0283C081E08093B3
:1008E000D3021092E4021092E5021092DD021092FF
:1008F000D4021092D0021092D70286E48093D202E2
:100900008091CC028F5F8093CC026BC01092D30297
:1009100081E08093E4021092E5021092DD021092D1
:10092000D4021092D0021092D70287E48093D202B0
:100930008091CC028F5F8093CC0253C081E0809382
:10094000D3021092E4021092E5021092DD0210929E
:10095000D4021092D0021092D70288E48093D2027F
:100960008091CC028F5F8093CC023BC01092D30267
:1009700081E08093E4021092E5021092DD02109271
:10098000D4021092D0021092D70281E48093D20256
:100990008091CC028F5F8093CC0223C0833081F49E
:1009A0001092D3021092E4021092E5021092DD023E
:1009B00081E08093D4021092D0021092D70211C02D
:1009C000843079F41092D3021092E4021092E5027E
:1009D0001092DD021092D40281E08093D002109236
:1009E000D7021092C9021092C8028091CC028436BC
:1009F00010F01092CC02789408951092D3021092C5
:100A0000E4021092E5021092DD021092D4021092DC
:100A1000D0021092D7021092CC021092C90210920A
:100A2000C80281E48093D20217BC18BC10928900DE
:100A30001092880010928B0010928A001092B300DE
:100A40001092B4001092E2021092D5021092DB02D2
:100A50001092D8021092E0021092DE021092D1029F
:100A60001092CE021092E3021092DA021092E1028A
:100A70001092DF021092D6021092CD020895529881
:100A80005A9AE9E6F0E0808182608083E89A78945F
:100A90000E945B000E946A000E94870081E48093AC
:100AA000D2021092D9020E9498030E94CE000E94A6
:100AB0002C010E9486010E94E5010E946B030E94A6
:100AC00083030E944002EFCF1F920F920FB60F9246
:100AD00011248F939F938091CA029091CB0201962B
:100AE0009093CB028093CA024E9768F08091C8021F
:100AF0009091C90201969093C9028093C802109206
:100B0000CB021092CA029F918F910F900FBE0F904F
:100B10001F9018951F920F920FB60F9211242F93CA
:100B20003F934F935F936F937F938F939F93AF9375
:100B3000BF93EF93FF930E94FD048091D9028F5FD2
:100B40008093D902853019F41092D90205C0823001
:100B500019F483E08093D902FF91EF91BF91AF9197
:100B60009F918F917F916F915F914F913F912F91C5
:100B70000F900FBE0F901F901895EE0FFF1F05905E
:0A0B8000F491E02D0994F894FFCFE2
:100B8A000300C800E803A000F401E8039001D007BD
:100B9A00580220035802D0076400E803F401A000B9
:100BAA00F401C800E803A0002C016400BC0284031D
:100BBA0088139001D0076400E8038813D0072C013A
:100BCA00F401D0078813C800E8035802C80064007B
:100BDA007017C8008813C800D007E8038813D00725
:100BEA006400D007A00F2C01580220039001D007FF
:100BFA00E8032C01E803C8002C016400BC0284034A
:100C0A0088139001D0076400E8038813D0072C01E9
:100C1A00F401D0078813C800E8035802C80064002A
:100C2A007017C8008813C800D007E8038813D007D4
:100C3A006400D0072C016400BC028403881390016D
:100C4A00D0076400E80388130000000000000000D9
:100C5A00000001010101010101010101010101017C
:100C6A000102020202020202020203030303030355
:100C7A000404040404050505050606060707070813
:100C8A00080809090A0A0B0B0C0C0D0D0E0F0F10A0
:100C9A00111112131415161718191A1B1C1D1F20CF
:100CAA002123242627292B2C2E30323436383A3C5D
:100CBA003E404345474A4C4F515457595C5F626422
:100CCA00676A6D707376797C7F8285888B8E919442
:100CDA00979A9C9FA2A5A7AAADAFB2B4B7B9BBBE5B
:100CEA00C0C2C4C6C8CACCCED0D2D3D5D7D8DADB14
:100CFA00DDDEDFE1E2E3E4E5E6E7E8E9EAEBECED95
:100D0A00EDEEEFEFF0F1F1F2F2F3F3F4F4F5F5F6BC
:100D1A00F6F6F7F7F7F8F8F8F9F9F9F9FAFAFAFA44
:100D2A00FAFBFBFBFBFBFBFCFCFCFCFCFCFCFCFC01
:100D3A00FDFDFDFDFDFDFDFDFDFDFDFDFDFDFDFED8
:080D4A00FEFEFEFEFEFEFFFFAF
:00000001FF
